:020000040000FA
:10000000012807309F008316F8308500F030860005
:1000100000308100831285018601A0012B20061A81
:100020001D285A20061A1D282008643A03191A2888
:10003000A00A2B20061E1A285A20861A0F285A209A
:10004000861A0F28A00803192728A0032B20861E34
:1000500027285A200F282008643A031D3A2805153E
:10006000A101A201A30123084F20522022084F2002
:100070005620080005112008A100A2010A30210223
:10008000031C46280A30A102A20A3E282108A30028
:1000900023084F20522022084F20562008000F39F5
:1000A00086000800051400000510080085140000F3
:1000B000851008006430A400C830A500A50B5E2898
:0600C000A40B5C280800FF
:0400C60000340034CE
:02400E00103F61
:00000001FF
