:020000040000FA
:10000000012807309F008316F8308500F030860005
:1000100000308100831285018601A001051485143A
:100020002D20061A1F285720061A1F282008643A78
:1000300003191C28A00A2D20061E1C285720861AEA
:1000400011285720861A1128A00803192928A0036F
:100050002D20861E2928572011282008643A031DC8
:1000600039280515A201A30123084F202208532097
:10007000080005112008A100A2010A302102031C7A
:1000800045280A30A102A20A3D282108A30023081E
:100090004F202208532008000F3986000800051061
:1000A0004C200514080085104C20851408001E30D3
:1000B000A4006430A500A50B5B28A40B59280800F8
:0400C00000340034D4
:02400E00103F61
:00000001FF
